:030000000202B148
:0C02B100787FE4F6D8FD7581180202F891
:100483005345542051413A20005345542043413AA7
:100493002000555044415445204641494C210055C4
:1004A3005044415445205355434345535321005130
:1004B30055414E544954593A2000564143414E4305
:0F04C30059203A20004F5645524C4F41442100DA
:10065800020A000002100032021200000214000018
:0C066800020C000002080000020E00005E
:040589007F2C7E0144
:10058D00E4FDFCC3ED9FEE6480F8EC64809850159B
:10059D00E4FBFA0BBB00010AEB647B4A70F50DBD61
:0505AD0000010C80DEDE
:0105B2002226
:10033D0090FFFFC2A020A40690000112058920A500
:10034D000690000212058920A60690000312058969
:10035D00D2A0C2A120A40690000412058920A506F2
:10036D0090000512058920A606900006120589D277
:10037D00A1C2A220A40690000712058920A506900F
:10038D00000812058920A606900009120589D2A23F
:10039D00C2A320A40690006412058920A508E4F5E7
:1003AD0083F58212058920A6069000C8120589D210
:0503BD00A3AE83AF8236
:0103C2002218
:10022200E4FDFF12061A85120C85130DE4F512F592
:10023200137BFF7A0479831205D7120589E4F50846
:10024200F509C3E5099404E50864809480505F12BF
:10025200033D8E0A8F0BE50B64C8450A700DE50954
:1002620045087007850C12850D1322E50B64C845FD
:100272000A603BE50B6464450A60C7E50BF4700352
:10028200E50AF460BDAE12AF137C007D0A1200F5E0
:10029200E50B2FF513E50A3EF512AF0BAE0A12007D
:0F02A200030509E50970020508120589809422F9
:100192007D01E4FF12061A851014851115E4F5108D
:1001A200F5117BFF7A04798C1205D7120589E4F5E3
:1001B20008F509C3E5099404E50864809480505F5A
:1001C20012033D8E0A8F0BE50B64C8450A700DE5DC
:1001D200094508700785141085151122E50B64C8BE
:1001E200450A603BE50B6464450A60C7E50BF470A1
:1001F20003E50AF460BDAE10AF117C007D0A120067
:10020200F5E50B2FF511E50A3EF510AF0BAE0A121C
:1002120000030509E5097002050812058980942288
:10043100802BC3E5119513E5126480F8E510648003
:100441009850251206C87D01E4FF12061A7BFF7A37
:100451000479951205D77FE87E0312058D1206C82F
:1004610012022212019280CA1206C87D01E4FF1213
:10047100061A7BFF7A0479A21205D77FE87E030270
:02048100058DE7
:0B06D400E4F512F513F5107511322249
:100517001206C8E4FDFF12061A7BFF7A0479B212AD
:1005270005D7AF13AE121200037D01E4FF12061ABE
:100537007BFF7A0479BD1205D7C3E5119513FFE553
:0E054700109512FE1200037F2C7E0102058D1E
:100555002091FD3091FDD3E5139511E5106480F8E8
:10056500E51264809850080513E51370020512D34F
:10057500E5139511E5106480F8E512648098500341
:040585001205172222
:10063A002090FD3090FDD3E5139400E51264809478
:0E064A00804008E51315137002151202051703
:1003C300C2921204D28052209032E513B51125E572
:1003D30012B51020D2921206C87D01E4FF12061A4C
:1003E3007BFF7A0479C81205D77F107E2712058D0B
:1003F300C29280253090FD12055580CB20910830A4
:1004030091FD12063A80C012033D8E0A8F0BE50B55
:100413006464450A70081206D412051780A9E50B17
:0E04230064C8450A70A11204311205178099B1
:1006A400E4FDFCC3ED9FEC9E50070DBD00010C80E2
:0106B400F253
:0106B5002222
:1005FA00E4FDFCC3ED9FEC9E5015E4FBFA0BBB0037
:0F060A00010AEB647D4A70F50DBD00010C80E420
:0106190022BE
:03069100120675D9
:10069400D2B27F037E001206A4C2B27F320206A445
:10067500EF1392B4EFC3131392B5EF1313543F1353
:0C06850092B6EF131313541F1392B72208
:1006B600AB07EBC4540FFF120691AF031206750287
:0206C600069498
:0C06C8007F011206B67F0A7E000206A425
:1004D200E4FF1206757F147E001205FAC2B0C2B1A3
:1004E2007F031206917F057E001205FA1206947FA1
:1004F200647E001206A41206947F0212067512068A
:10050200947F281206B67F0C1206B67F061206B634
:050512007F010206B6A6
:10061A00ED7006EF2480FA8004EF24C0FA7FE87EAA
:10062A00031206A4AF021206B67F327E000206A4A7
:1005B3002430FF1205CFAE16AF177C007D0A12015F
:0C05C300077C007D0A120107ED2430FFC8
:0805CF00D2B01206B6C2B02240
:1005D7008B168A178918AB16AA17A9181200DCFF01
:1005E70060101205CF74012518F518E43517F517B3
:0305F70080E4227B
:100003008E168F17D3E5179409E5166480948050F4
:1000130004EF0200D5D3E5179409E51664809480B4
:10002300402DE5179464E516648094805021AE1644
:10003300AF177C007D0A120107EF2430FF1205CFB2
:10004300AE16AF177C007D0A120107ED0200D5D36F
:10005300E5179463E516648094804029E51794E8D6
:10006300E51664809483501DAE16AF177C007D6443
:10007300120107EF1205B3AE16AF177C007D0A120B
:100083000107ED804DD3E51794E7E516648094836B
:100093004046E5179410E516648094A7503AAE16CF
:1000A300AF177C037DE8120107EF2430FF1205CF61
:1000B300AE16AF177C007D641201077C007D0A1227
:1000C3000107ED1205B3AE16AF177C007D0A1201CE
:0900D30007ED2430FF1205CF22D5
:1002BD000203C3E493A3F8E493A34003F68001F291
:1002CD0008DFF48029E493A3F85407240CC8C33342
:1002DD00C4540F4420C8834004F456800146F6DF11
:1002ED00E4800B0102040810204080900658E47E43
:1002FD00019360BCA3FF543F30E509541FFEE49306
:10030D00A360010ECF54C025E060A840B8E493A3CC
:10031D00FAE493A3F8E493A3C8C582C8CAC583CAF7
:10032D00F0A3C8C582C8CAC583CADFE9DEE780BEAF
:010674000085
:1000DC00BB010689828A83E0225002E722BBFE0222
:0900EC00E32289828A83E4932255
:1000F500EF8DF0A4A8F0CF8CF0A428CE8DF0A42E1F
:02010500FE22D8
:10010700C2D5EC30E709B2D5E4C39DFDE49CFCEE13
:1001170030E715B2D5E4C39FFFE49EFE12013DC34D
:10012700E49DFDE49CFC800312013D30D507C3E448
:060137009FFFE49EFE2282
:10013D00BC000BBE0029EF8DF084FFADF022E4CCA6
:10014D00F875F008EF2FFFEE33FEEC33FCEE9DEC6F
:10015D00984005FCEE9DFE0FD5F0E9E4CEFD22EDB5
:10016D00F8F5F0EE8420D21CFEADF075F008EF2FFF
:10017D00FFED33FD4007985006D5F0F222C398FDF0
:05018D000FD5F0EA228D
:00000001FF
